{
  "_format": "hh-sol-artifact-1",
  "contractName": "GemstoneRegistry",
  "sourceName": "contracts/GemstoneRegistry.sol",
  "abi": [
    {
      "anonymous": false,
      "inputs": [
        {
          "indexed": false,
          "internalType": "uint256",
          "name": "gemstoneId",
          "type": "uint256"
        },
        {
          "indexed": false,
          "internalType": "string",
          "name": "hash",
          "type": "string"
        },
        {
          "indexed": false,
          "internalType": "address",
          "name": "seller",
          "type": "address"
        }
      ],
      "name": "GemstoneRegistered",
      "type": "event"
    },
    {
      "anonymous": false,
      "inputs": [
        {
          "indexed": false,
          "internalType": "uint256",
          "name": "gemstoneId",
          "type": "uint256"
        },
        {
          "indexed": false,
          "internalType": "address",
          "name": "newOwner",
          "type": "address"
        }
      ],
      "name": "GemstoneTransferred",
      "type": "event"
    },
    {
      "anonymous": false,
      "inputs": [
        {
          "indexed": false,
          "internalType": "uint256",
          "name": "gemstoneId",
          "type": "uint256"
        }
      ],
      "name": "GemstoneVerified",
      "type": "event"
    },
    {
      "inputs": [],
      "name": "gemstoneCount",
      "outputs": [
        {
          "internalType": "uint256",
          "name": "",
          "type": "uint256"
        }
      ],
      "stateMutability": "view",
      "type": "function"
    },
    {
      "inputs": [
        {
          "internalType": "uint256",
          "name": "",
          "type": "uint256"
        }
      ],
      "name": "gemstones",
      "outputs": [
        {
          "internalType": "string",
          "name": "hash",
          "type": "string"
        },
        {
          "internalType": "address",
          "name": "seller",
          "type": "address"
        },
        {
          "internalType": "bool",
          "name": "isVerified",
          "type": "bool"
        },
        {
          "internalType": "enum GemstoneRegistry.Status",
          "name": "status",
          "type": "uint8"
        }
      ],
      "stateMutability": "view",
      "type": "function"
    },
    {
      "inputs": [
        {
          "internalType": "uint256",
          "name": "_id",
          "type": "uint256"
        }
      ],
      "name": "getGemstoneHash",
      "outputs": [
        {
          "internalType": "string",
          "name": "",
          "type": "string"
        }
      ],
      "stateMutability": "view",
      "type": "function"
    },
    {
      "inputs": [
        {
          "internalType": "uint256",
          "name": "_id",
          "type": "uint256"
        }
      ],
      "name": "isGemstoneVerified",
      "outputs": [
        {
          "internalType": "bool",
          "name": "",
          "type": "bool"
        }
      ],
      "stateMutability": "view",
      "type": "function"
    },
    {
      "inputs": [
        {
          "internalType": "string",
          "name": "_hash",
          "type": "string"
        }
      ],
      "name": "registerGemstone",
      "outputs": [
        {
          "internalType": "uint256",
          "name": "",
          "type": "uint256"
        }
      ],
      "stateMutability": "nonpayable",
      "type": "function"
    },
    {
      "inputs": [
        {
          "internalType": "uint256",
          "name": "_id",
          "type": "uint256"
        }
      ],
      "name": "rejectGemstone",
      "outputs": [],
      "stateMutability": "nonpayable",
      "type": "function"
    },
    {
      "inputs": [
        {
          "internalType": "uint256",
          "name": "_id",
          "type": "uint256"
        },
        {
          "internalType": "address",
          "name": "_to",
          "type": "address"
        }
      ],
      "name": "transferGemstone",
      "outputs": [],
      "stateMutability": "nonpayable",
      "type": "function"
    },
    {
      "inputs": [
        {
          "internalType": "uint256",
          "name": "_id",
          "type": "uint256"
        }
      ],
      "name": "verifyGemstone",
      "outputs": [],
      "stateMutability": "nonpayable",
      "type": "function"
    }
  ],
  "bytecode": "0x60806040526000600155348015601457600080fd5b50611123806100246000396000f3fe608060405234801561001057600080fd5b50600436106100885760003560e01c80632e670ff91161005b5780632e670ff91461013c5780635bb519571461016c578063afa4037c14610188578063dc65a175146101a457610088565b80630f1833bb1461008d57806317224732146100c057806328ea09bc146100f05780632a589ad81461010c575b600080fd5b6100a760048036038101906100a291906107f8565b6101c2565b6040516100b79493929190610988565b60405180910390f35b6100da60048036038101906100d591906107f8565b6102b4565b6040516100e791906109d4565b60405180910390f35b61010a600480360381019061010591906107f8565b6102e0565b005b61012660048036038101906101219190610b24565b610386565b6040516101339190610b7c565b60405180910390f35b610156600480360381019061015191906107f8565b610503565b6040516101639190610b97565b60405180910390f35b61018660048036038101906101819190610be5565b6105aa565b005b6101a2600480360381019061019d91906107f8565b6106de565b005b6101ac6107a8565b6040516101b99190610b7c565b60405180910390f35b60006020528060005260406000206000915090508060000180546101e590610c54565b80601f016020809104026020016040519081016040528092919081815260200182805461021190610c54565b801561025e5780601f106102335761010080835404028352916020019161025e565b820191906000526020600020905b81548152906001019060200180831161024157829003601f168201915b5050505050908060010160009054906101000a900473ffffffffffffffffffffffffffffffffffffffff16908060010160149054906101000a900460ff16908060010160159054906101000a900460ff16905084565b600080600083815260200190815260200160002060010160149054906101000a900460ff169050919050565b600160008083815260200190815260200160002060010160146101000a81548160ff021916908315150217905550600160008083815260200190815260200160002060010160156101000a81548160ff0219169083600281111561034757610346610911565b5b02179055507fd434d816294f1bcd59ea4b00e1b6739022ea97bceab1890cf19b0ab156427fd58160405161037b9190610b7c565b60405180910390a150565b600060405180608001604052808381526020013373ffffffffffffffffffffffffffffffffffffffff168152602001600015158152602001600060028111156103d2576103d1610911565b5b815250600080600154815260200190815260200160002060008201518160000190816103fe9190610e31565b5060208201518160010160006101000a81548173ffffffffffffffffffffffffffffffffffffffff021916908373ffffffffffffffffffffffffffffffffffffffff16021790555060408201518160010160146101000a81548160ff02191690831515021790555060608201518160010160156101000a81548160ff0219169083600281111561049157610490610911565b5b02179055509050507f3786948f4207a1172d60e708c8ecfea2882df761ede46d7a375d030557401f5d60015483336040516104ce93929190610f03565b60405180910390a1600160008154809291906104e990610f70565b9190505550600180546104fc9190610fb8565b9050919050565b6060600080838152602001908152602001600020600001805461052590610c54565b80601f016020809104026020016040519081016040528092919081815260200182805461055190610c54565b801561059e5780601f106105735761010080835404028352916020019161059e565b820191906000526020600020905b81548152906001019060200180831161058157829003601f168201915b50505050509050919050565b3373ffffffffffffffffffffffffffffffffffffffff1660008084815260200190815260200160002060010160009054906101000a900473ffffffffffffffffffffffffffffffffffffffff1673ffffffffffffffffffffffffffffffffffffffff161461064d576040517f08c379a000000000000000000000000000000000000000000000000000000000815260040161064490611038565b60405180910390fd5b8060008084815260200190815260200160002060010160006101000a81548173ffffffffffffffffffffffffffffffffffffffff021916908373ffffffffffffffffffffffffffffffffffffffff1602179055507f3046703b5799586f9782613edfeb29d02e7f7d6e5c5e012beec2614bfb8b076f82826040516106d2929190611058565b60405180910390a15050565b600060028111156106f2576106f1610911565b5b60008083815260200190815260200160002060010160159054906101000a900460ff16600281111561072757610726610911565b5b14610767576040517f08c379a000000000000000000000000000000000000000000000000000000000815260040161075e906110cd565b60405180910390fd5b600260008083815260200190815260200160002060010160156101000a81548160ff021916908360028111156107a05761079f610911565b5b021790555050565b60015481565b6000604051905090565b600080fd5b600080fd5b6000819050919050565b6107d5816107c2565b81146107e057600080fd5b50565b6000813590506107f2816107cc565b92915050565b60006020828403121561080e5761080d6107b8565b5b600061081c848285016107e3565b91505092915050565b600081519050919050565b600082825260208201905092915050565b60005b8381101561085f578082015181840152602081019050610844565b60008484015250505050565b6000601f19601f8301169050919050565b600061088782610825565b6108918185610830565b93506108a1818560208601610841565b6108aa8161086b565b840191505092915050565b600073ffffffffffffffffffffffffffffffffffffffff82169050919050565b60006108e0826108b5565b9050919050565b6108f0816108d5565b82525050565b60008115159050919050565b61090b816108f6565b82525050565b7f4e487b7100000000000000000000000000000000000000000000000000000000600052602160045260246000fd5b6003811061095157610950610911565b5b50565b600081905061096282610940565b919050565b600061097282610954565b9050919050565b61098281610967565b82525050565b600060808201905081810360008301526109a2818761087c565b90506109b160208301866108e7565b6109be6040830185610902565b6109cb6060830184610979565b95945050505050565b60006020820190506109e96000830184610902565b92915050565b600080fd5b600080fd5b7f4e487b7100000000000000000000000000000000000000000000000000000000600052604160045260246000fd5b610a318261086b565b810181811067ffffffffffffffff82111715610a5057610a4f6109f9565b5b80604052505050565b6000610a636107ae565b9050610a6f8282610a28565b919050565b600067ffffffffffffffff821115610a8f57610a8e6109f9565b5b610a988261086b565b9050602081019050919050565b82818337600083830152505050565b6000610ac7610ac284610a74565b610a59565b905082815260208101848484011115610ae357610ae26109f4565b5b610aee848285610aa5565b509392505050565b600082601f830112610b0b57610b0a6109ef565b5b8135610b1b848260208601610ab4565b91505092915050565b600060208284031215610b3a57610b396107b8565b5b600082013567ffffffffffffffff811115610b5857610b576107bd565b5b610b6484828501610af6565b91505092915050565b610b76816107c2565b82525050565b6000602082019050610b916000830184610b6d565b92915050565b60006020820190508181036000830152610bb1818461087c565b905092915050565b610bc2816108d5565b8114610bcd57600080fd5b50565b600081359050610bdf81610bb9565b92915050565b60008060408385031215610bfc57610bfb6107b8565b5b6000610c0a858286016107e3565b9250506020610c1b85828601610bd0565b9150509250929050565b7f4e487b7100000000000000000000000000000000000000000000000000000000600052602260045260246000fd5b60006002820490506001821680610c6c57607f821691505b602082108103610c7f57610c7e610c25565b5b50919050565b60008190508160005260206000209050919050565b60006020601f8301049050919050565b600082821b905092915050565b600060088302610ce77fffffffffffffffffffffffffffffffffffffffffffffffffffffffffffffffff82610caa565b610cf18683610caa565b95508019841693508086168417925050509392505050565b6000819050919050565b6000610d2e610d29610d24846107c2565b610d09565b6107c2565b9050919050565b6000819050919050565b610d4883610d13565b610d5c610d5482610d35565b848454610cb7565b825550505050565b600090565b610d71610d64565b610d7c818484610d3f565b505050565b5b81811015610da057610d95600082610d69565b600181019050610d82565b5050565b601f821115610de557610db681610c85565b610dbf84610c9a565b81016020851015610dce578190505b610de2610dda85610c9a565b830182610d81565b50505b505050565b600082821c905092915050565b6000610e0860001984600802610dea565b1980831691505092915050565b6000610e218383610df7565b9150826002028217905092915050565b610e3a82610825565b67ffffffffffffffff811115610e5357610e526109f9565b5b610e5d8254610c54565b610e68828285610da4565b600060209050601f831160018114610e9b5760008415610e89578287015190505b610e938582610e15565b865550610efb565b601f198416610ea986610c85565b60005b82811015610ed157848901518255600182019150602085019450602081019050610eac565b86831015610eee5784890151610eea601f891682610df7565b8355505b6001600288020188555050505b505050505050565b6000606082019050610f186000830186610b6d565b8181036020830152610f2a818561087c565b9050610f3960408301846108e7565b949350505050565b7f4e487b7100000000000000000000000000000000000000000000000000000000600052601160045260246000fd5b6000610f7b826107c2565b91507fffffffffffffffffffffffffffffffffffffffffffffffffffffffffffffffff8203610fad57610fac610f41565b5b600182019050919050565b6000610fc3826107c2565b9150610fce836107c2565b9250828203905081811115610fe657610fe5610f41565b5b92915050565b7f4e6f74206f776e65720000000000000000000000000000000000000000000000600082015250565b6000611022600983610830565b915061102d82610fec565b602082019050919050565b6000602082019050818103600083015261105181611015565b9050919050565b600060408201905061106d6000830185610b6d565b61107a60208301846108e7565b9392505050565b7f416c7265616479207665726966696564206f722072656a656374656400000000600082015250565b60006110b7601c83610830565b91506110c282611081565b602082019050919050565b600060208201905081810360008301526110e6816110aa565b905091905056fea264697066735822122080924c9bf8ab7931951a63a9fb714e54468aa6266e7128a0134561698d548d3364736f6c634300081c0033",
  "linkReferences": {},
  "deployedLinkReferences": {}
}