{
  "_format": "hh-sol-artifact-1",
  "contractName": "GemstoneRegistry",
  "sourceName": "contracts/GemstoneRegistry.sol",
  "abi": [
    {
      "anonymous": false,
      "inputs": [
        {
          "indexed": false,
          "internalType": "uint256",
          "name": "gemstoneId",
          "type": "uint256"
        },
        {
          "indexed": false,
          "internalType": "string",
          "name": "hash",
          "type": "string"
        },
        {
          "indexed": false,
          "internalType": "address",
          "name": "seller",
          "type": "address"
        }
      ],
      "name": "GemstoneRegistered",
      "type": "event"
    },
    {
      "anonymous": false,
      "inputs": [
        {
          "indexed": false,
          "internalType": "uint256",
          "name": "gemstoneId",
          "type": "uint256"
        },
        {
          "indexed": false,
          "internalType": "address",
          "name": "newOwner",
          "type": "address"
        }
      ],
      "name": "GemstoneTransferred",
      "type": "event"
    },
    {
      "anonymous": false,
      "inputs": [
        {
          "indexed": false,
          "internalType": "uint256",
          "name": "gemstoneId",
          "type": "uint256"
        }
      ],
      "name": "GemstoneVerified",
      "type": "event"
    },
    {
      "inputs": [],
      "name": "gemstoneCount",
      "outputs": [
        {
          "internalType": "uint256",
          "name": "",
          "type": "uint256"
        }
      ],
      "stateMutability": "view",
      "type": "function"
    },
    {
      "inputs": [
        {
          "internalType": "uint256",
          "name": "",
          "type": "uint256"
        }
      ],
      "name": "gemstones",
      "outputs": [
        {
          "internalType": "string",
          "name": "hash",
          "type": "string"
        },
        {
          "internalType": "address",
          "name": "seller",
          "type": "address"
        },
        {
          "internalType": "bool",
          "name": "isVerified",
          "type": "bool"
        }
      ],
      "stateMutability": "view",
      "type": "function"
    },
    {
      "inputs": [
        {
          "internalType": "uint256",
          "name": "_id",
          "type": "uint256"
        }
      ],
      "name": "getGemstoneHash",
      "outputs": [
        {
          "internalType": "string",
          "name": "",
          "type": "string"
        }
      ],
      "stateMutability": "view",
      "type": "function"
    },
    {
      "inputs": [
        {
          "internalType": "uint256",
          "name": "_id",
          "type": "uint256"
        }
      ],
      "name": "isGemstoneVerified",
      "outputs": [
        {
          "internalType": "bool",
          "name": "",
          "type": "bool"
        }
      ],
      "stateMutability": "view",
      "type": "function"
    },
    {
      "inputs": [
        {
          "internalType": "string",
          "name": "_hash",
          "type": "string"
        }
      ],
      "name": "registerGemstone",
      "outputs": [
        {
          "internalType": "uint256",
          "name": "",
          "type": "uint256"
        }
      ],
      "stateMutability": "nonpayable",
      "type": "function"
    },
    {
      "inputs": [
        {
          "internalType": "uint256",
          "name": "_id",
          "type": "uint256"
        },
        {
          "internalType": "address",
          "name": "_to",
          "type": "address"
        }
      ],
      "name": "transferGemstone",
      "outputs": [],
      "stateMutability": "nonpayable",
      "type": "function"
    },
    {
      "inputs": [
        {
          "internalType": "uint256",
          "name": "_id",
          "type": "uint256"
        }
      ],
      "name": "verifyGemstone",
      "outputs": [],
      "stateMutability": "nonpayable",
      "type": "function"
    }
  ],
  "bytecode": "0x60806040526000600155348015601457600080fd5b50610ea6806100246000396000f3fe608060405234801561001057600080fd5b506004361061007d5760003560e01c80632a589ad81161005b5780632a589ad8146101005780632e670ff9146101305780635bb5195714610160578063dc65a1751461017c5761007d565b80630f1833bb1461008257806317224732146100b457806328ea09bc146100e4575b600080fd5b61009c6004803603810190610097919061066c565b61019a565b6040516100ab93929190610785565b60405180910390f35b6100ce60048036038101906100c9919061066c565b610279565b6040516100db91906107c3565b60405180910390f35b6100fe60048036038101906100f9919061066c565b6102a5565b005b61011a60048036038101906101159190610913565b61030d565b604051610127919061096b565b60405180910390f35b61014a6004803603810190610145919061066c565b610441565b6040516101579190610986565b60405180910390f35b61017a600480360381019061017591906109d4565b6104e8565b005b61018461061c565b604051610191919061096b565b60405180910390f35b60006020528060005260406000206000915090508060000180546101bd90610a43565b80601f01602080910402602001604051908101604052809291908181526020018280546101e990610a43565b80156102365780601f1061020b57610100808354040283529160200191610236565b820191906000526020600020905b81548152906001019060200180831161021957829003601f168201915b5050505050908060010160009054906101000a900473ffffffffffffffffffffffffffffffffffffffff16908060010160149054906101000a900460ff16905083565b600080600083815260200190815260200160002060010160149054906101000a900460ff169050919050565b600160008083815260200190815260200160002060010160146101000a81548160ff0219169083151502179055507fd434d816294f1bcd59ea4b00e1b6739022ea97bceab1890cf19b0ab156427fd581604051610302919061096b565b60405180910390a150565b600060405180606001604052808381526020013373ffffffffffffffffffffffffffffffffffffffff168152602001600015158152506000806001548152602001908152602001600020600082015181600001908161036c9190610c20565b5060208201518160010160006101000a81548173ffffffffffffffffffffffffffffffffffffffff021916908373ffffffffffffffffffffffffffffffffffffffff16021790555060408201518160010160146101000a81548160ff0219169083151502179055509050507f3786948f4207a1172d60e708c8ecfea2882df761ede46d7a375d030557401f5d600154833360405161040c93929190610cf2565b60405180910390a16001600081548092919061042790610d5f565b91905055506001805461043a9190610da7565b9050919050565b6060600080838152602001908152602001600020600001805461046390610a43565b80601f016020809104026020016040519081016040528092919081815260200182805461048f90610a43565b80156104dc5780601f106104b1576101008083540402835291602001916104dc565b820191906000526020600020905b8154815290600101906020018083116104bf57829003601f168201915b50505050509050919050565b3373ffffffffffffffffffffffffffffffffffffffff1660008084815260200190815260200160002060010160009054906101000a900473ffffffffffffffffffffffffffffffffffffffff1673ffffffffffffffffffffffffffffffffffffffff161461058b576040517f08c379a000000000000000000000000000000000000000000000000000000000815260040161058290610e27565b60405180910390fd5b8060008084815260200190815260200160002060010160006101000a81548173ffffffffffffffffffffffffffffffffffffffff021916908373ffffffffffffffffffffffffffffffffffffffff1602179055507f3046703b5799586f9782613edfeb29d02e7f7d6e5c5e012beec2614bfb8b076f8282604051610610929190610e47565b60405180910390a15050565b60015481565b6000604051905090565b600080fd5b600080fd5b6000819050919050565b61064981610636565b811461065457600080fd5b50565b60008135905061066681610640565b92915050565b6000602082840312156106825761068161062c565b5b600061069084828501610657565b91505092915050565b600081519050919050565b600082825260208201905092915050565b60005b838110156106d35780820151818401526020810190506106b8565b60008484015250505050565b6000601f19601f8301169050919050565b60006106fb82610699565b61070581856106a4565b93506107158185602086016106b5565b61071e816106df565b840191505092915050565b600073ffffffffffffffffffffffffffffffffffffffff82169050919050565b600061075482610729565b9050919050565b61076481610749565b82525050565b60008115159050919050565b61077f8161076a565b82525050565b6000606082019050818103600083015261079f81866106f0565b90506107ae602083018561075b565b6107bb6040830184610776565b949350505050565b60006020820190506107d86000830184610776565b92915050565b600080fd5b600080fd5b7f4e487b7100000000000000000000000000000000000000000000000000000000600052604160045260246000fd5b610820826106df565b810181811067ffffffffffffffff8211171561083f5761083e6107e8565b5b80604052505050565b6000610852610622565b905061085e8282610817565b919050565b600067ffffffffffffffff82111561087e5761087d6107e8565b5b610887826106df565b9050602081019050919050565b82818337600083830152505050565b60006108b66108b184610863565b610848565b9050828152602081018484840111156108d2576108d16107e3565b5b6108dd848285610894565b509392505050565b600082601f8301126108fa576108f96107de565b5b813561090a8482602086016108a3565b91505092915050565b6000602082840312156109295761092861062c565b5b600082013567ffffffffffffffff81111561094757610946610631565b5b610953848285016108e5565b91505092915050565b61096581610636565b82525050565b6000602082019050610980600083018461095c565b92915050565b600060208201905081810360008301526109a081846106f0565b905092915050565b6109b181610749565b81146109bc57600080fd5b50565b6000813590506109ce816109a8565b92915050565b600080604083850312156109eb576109ea61062c565b5b60006109f985828601610657565b9250506020610a0a858286016109bf565b9150509250929050565b7f4e487b7100000000000000000000000000000000000000000000000000000000600052602260045260246000fd5b60006002820490506001821680610a5b57607f821691505b602082108103610a6e57610a6d610a14565b5b50919050565b60008190508160005260206000209050919050565b60006020601f8301049050919050565b600082821b905092915050565b600060088302610ad67fffffffffffffffffffffffffffffffffffffffffffffffffffffffffffffffff82610a99565b610ae08683610a99565b95508019841693508086168417925050509392505050565b6000819050919050565b6000610b1d610b18610b1384610636565b610af8565b610636565b9050919050565b6000819050919050565b610b3783610b02565b610b4b610b4382610b24565b848454610aa6565b825550505050565b600090565b610b60610b53565b610b6b818484610b2e565b505050565b5b81811015610b8f57610b84600082610b58565b600181019050610b71565b5050565b601f821115610bd457610ba581610a74565b610bae84610a89565b81016020851015610bbd578190505b610bd1610bc985610a89565b830182610b70565b50505b505050565b600082821c905092915050565b6000610bf760001984600802610bd9565b1980831691505092915050565b6000610c108383610be6565b9150826002028217905092915050565b610c2982610699565b67ffffffffffffffff811115610c4257610c416107e8565b5b610c4c8254610a43565b610c57828285610b93565b600060209050601f831160018114610c8a5760008415610c78578287015190505b610c828582610c04565b865550610cea565b601f198416610c9886610a74565b60005b82811015610cc057848901518255600182019150602085019450602081019050610c9b565b86831015610cdd5784890151610cd9601f891682610be6565b8355505b6001600288020188555050505b505050505050565b6000606082019050610d07600083018661095c565b8181036020830152610d1981856106f0565b9050610d28604083018461075b565b949350505050565b7f4e487b7100000000000000000000000000000000000000000000000000000000600052601160045260246000fd5b6000610d6a82610636565b91507fffffffffffffffffffffffffffffffffffffffffffffffffffffffffffffffff8203610d9c57610d9b610d30565b5b600182019050919050565b6000610db282610636565b9150610dbd83610636565b9250828203905081811115610dd557610dd4610d30565b5b92915050565b7f4e6f74206f776e65720000000000000000000000000000000000000000000000600082015250565b6000610e116009836106a4565b9150610e1c82610ddb565b602082019050919050565b60006020820190508181036000830152610e4081610e04565b9050919050565b6000604082019050610e5c600083018561095c565b610e69602083018461075b565b939250505056fea26469706673582212200c45d2164e2db63369495e674933466f8f573522904e091f22b7e19534498bec64736f6c634300081c0033",
  "linkReferences": {},
  "deployedLinkReferences": {}
}