{
  "_format": "hh-sol-artifact-1",
  "contractName": "GemstoneRegistry",
  "sourceName": "contracts/GemstoneRegistry.sol",
  "abi": [
    {
      "anonymous": false,
      "inputs": [
        {
          "indexed": false,
          "internalType": "uint256",
          "name": "gemstoneId",
          "type": "uint256"
        },
        {
          "indexed": false,
          "internalType": "string",
          "name": "hash",
          "type": "string"
        },
        {
          "indexed": false,
          "internalType": "address",
          "name": "seller",
          "type": "address"
        }
      ],
      "name": "GemstoneRegistered",
      "type": "event"
    },
    {
      "anonymous": false,
      "inputs": [
        {
          "indexed": false,
          "internalType": "uint256",
          "name": "gemstoneId",
          "type": "uint256"
        }
      ],
      "name": "GemstoneRejected",
      "type": "event"
    },
    {
      "anonymous": false,
      "inputs": [
        {
          "indexed": false,
          "internalType": "uint256",
          "name": "gemstoneId",
          "type": "uint256"
        },
        {
          "indexed": false,
          "internalType": "address",
          "name": "newOwner",
          "type": "address"
        }
      ],
      "name": "GemstoneTransferred",
      "type": "event"
    },
    {
      "anonymous": false,
      "inputs": [
        {
          "indexed": false,
          "internalType": "uint256",
          "name": "gemstoneId",
          "type": "uint256"
        }
      ],
      "name": "GemstoneVerified",
      "type": "event"
    },
    {
      "inputs": [],
      "name": "gemstoneCount",
      "outputs": [
        {
          "internalType": "uint256",
          "name": "",
          "type": "uint256"
        }
      ],
      "stateMutability": "view",
      "type": "function"
    },
    {
      "inputs": [
        {
          "internalType": "uint256",
          "name": "",
          "type": "uint256"
        }
      ],
      "name": "gemstones",
      "outputs": [
        {
          "internalType": "string",
          "name": "hash",
          "type": "string"
        },
        {
          "internalType": "address",
          "name": "seller",
          "type": "address"
        },
        {
          "internalType": "bool",
          "name": "isVerified",
          "type": "bool"
        },
        {
          "internalType": "enum GemstoneRegistry.Status",
          "name": "status",
          "type": "uint8"
        }
      ],
      "stateMutability": "view",
      "type": "function"
    },
    {
      "inputs": [
        {
          "internalType": "uint256",
          "name": "_id",
          "type": "uint256"
        }
      ],
      "name": "getGemstoneHash",
      "outputs": [
        {
          "internalType": "string",
          "name": "",
          "type": "string"
        }
      ],
      "stateMutability": "view",
      "type": "function"
    },
    {
      "inputs": [
        {
          "internalType": "uint256",
          "name": "_id",
          "type": "uint256"
        }
      ],
      "name": "isGemstoneVerified",
      "outputs": [
        {
          "internalType": "bool",
          "name": "",
          "type": "bool"
        }
      ],
      "stateMutability": "view",
      "type": "function"
    },
    {
      "inputs": [
        {
          "internalType": "string",
          "name": "_hash",
          "type": "string"
        }
      ],
      "name": "registerGemstone",
      "outputs": [
        {
          "internalType": "uint256",
          "name": "",
          "type": "uint256"
        }
      ],
      "stateMutability": "nonpayable",
      "type": "function"
    },
    {
      "inputs": [
        {
          "internalType": "uint256",
          "name": "_id",
          "type": "uint256"
        },
        {
          "internalType": "address",
          "name": "_to",
          "type": "address"
        }
      ],
      "name": "transferGemstone",
      "outputs": [],
      "stateMutability": "nonpayable",
      "type": "function"
    },
    {
      "inputs": [
        {
          "internalType": "uint256",
          "name": "_id",
          "type": "uint256"
        },
        {
          "internalType": "string",
          "name": "_hash",
          "type": "string"
        }
      ],
      "name": "verifyGemstone",
      "outputs": [
        {
          "internalType": "enum GemstoneRegistry.Status",
          "name": "",
          "type": "uint8"
        }
      ],
      "stateMutability": "nonpayable",
      "type": "function"
    }
  ],
  "bytecode": "0x60806040526000600155348015601457600080fd5b5061138c806100246000396000f3fe608060405234801561001057600080fd5b506004361061007d5760003560e01c80632a589ad81161005b5780632a589ad8146101155780632e670ff9146101455780635bb5195714610175578063dc65a175146101915761007d565b80630f1833bb146100825780630f8b7f8b146100b557806317224732146100e5575b600080fd5b61009c600480360381019061009791906108c4565b6101af565b6040516100ac9493929190610a54565b60405180910390f35b6100cf60048036038101906100ca9190610bd5565b6102a1565b6040516100dc9190610c31565b60405180910390f35b6100ff60048036038101906100fa91906108c4565b6104f0565b60405161010c9190610c4c565b60405180910390f35b61012f600480360381019061012a9190610c67565b61051c565b60405161013c9190610cbf565b60405180910390f35b61015f600480360381019061015a91906108c4565b610699565b60405161016c9190610cda565b60405180910390f35b61018f600480360381019061018a9190610d28565b610740565b005b610199610874565b6040516101a69190610cbf565b60405180910390f35b60006020528060005260406000206000915090508060000180546101d290610d97565b80601f01602080910402602001604051908101604052809291908181526020018280546101fe90610d97565b801561024b5780601f106102205761010080835404028352916020019161024b565b820191906000526020600020905b81548152906001019060200180831161022e57829003601f168201915b5050505050908060010160009054906101000a900473ffffffffffffffffffffffffffffffffffffffff16908060010160149054906101000a900460ff16908060010160159054906101000a900460ff16905084565b600060015483106102e7576040517f08c379a00000000000000000000000000000000000000000000000000000000081526004016102de90610e14565b60405180910390fd5b600060028111156102fb576102fa6109dd565b5b60008085815260200190815260200160002060010160159054906101000a900460ff1660028111156103305761032f6109dd565b5b14610370576040517f08c379a000000000000000000000000000000000000000000000000000000000815260040161036790610e80565b60405180910390fd5b818051906020012060008085815260200190815260200160002060000160405161039a9190610f43565b60405180910390200361044f57600160008085815260200190815260200160002060010160146101000a81548160ff021916908315150217905550600160008085815260200190815260200160002060010160156101000a81548160ff0219169083600281111561040e5761040d6109dd565b5b02179055507fd434d816294f1bcd59ea4b00e1b6739022ea97bceab1890cf19b0ab156427fd5836040516104429190610cbf565b60405180910390a16104c5565b600260008085815260200190815260200160002060010160156101000a81548160ff02191690836002811115610488576104876109dd565b5b02179055507fa7aa46cb620371f4120e2a9fc1b47ff898e9d4c14c86df77a85a52d657c5fdcf836040516104bc9190610cbf565b60405180910390a15b60008084815260200190815260200160002060010160159054906101000a900460ff16905092915050565b600080600083815260200190815260200160002060010160149054906101000a900460ff169050919050565b600060405180608001604052808381526020013373ffffffffffffffffffffffffffffffffffffffff16815260200160001515815260200160006002811115610568576105676109dd565b5b815250600080600154815260200190815260200160002060008201518160000190816105949190611106565b5060208201518160010160006101000a81548173ffffffffffffffffffffffffffffffffffffffff021916908373ffffffffffffffffffffffffffffffffffffffff16021790555060408201518160010160146101000a81548160ff02191690831515021790555060608201518160010160156101000a81548160ff02191690836002811115610627576106266109dd565b5b02179055509050507f3786948f4207a1172d60e708c8ecfea2882df761ede46d7a375d030557401f5d6001548333604051610664939291906111d8565b60405180910390a16001600081548092919061067f90611245565b919050555060018054610692919061128d565b9050919050565b606060008083815260200190815260200160002060000180546106bb90610d97565b80601f01602080910402602001604051908101604052809291908181526020018280546106e790610d97565b80156107345780601f1061070957610100808354040283529160200191610734565b820191906000526020600020905b81548152906001019060200180831161071757829003601f168201915b50505050509050919050565b3373ffffffffffffffffffffffffffffffffffffffff1660008084815260200190815260200160002060010160009054906101000a900473ffffffffffffffffffffffffffffffffffffffff1673ffffffffffffffffffffffffffffffffffffffff16146107e3576040517f08c379a00000000000000000000000000000000000000000000000000000000081526004016107da9061130d565b60405180910390fd5b8060008084815260200190815260200160002060010160006101000a81548173ffffffffffffffffffffffffffffffffffffffff021916908373ffffffffffffffffffffffffffffffffffffffff1602179055507f3046703b5799586f9782613edfeb29d02e7f7d6e5c5e012beec2614bfb8b076f828260405161086892919061132d565b60405180910390a15050565b60015481565b6000604051905090565b600080fd5b600080fd5b6000819050919050565b6108a18161088e565b81146108ac57600080fd5b50565b6000813590506108be81610898565b92915050565b6000602082840312156108da576108d9610884565b5b60006108e8848285016108af565b91505092915050565b600081519050919050565b600082825260208201905092915050565b60005b8381101561092b578082015181840152602081019050610910565b60008484015250505050565b6000601f19601f8301169050919050565b6000610953826108f1565b61095d81856108fc565b935061096d81856020860161090d565b61097681610937565b840191505092915050565b600073ffffffffffffffffffffffffffffffffffffffff82169050919050565b60006109ac82610981565b9050919050565b6109bc816109a1565b82525050565b60008115159050919050565b6109d7816109c2565b82525050565b7f4e487b7100000000000000000000000000000000000000000000000000000000600052602160045260246000fd5b60038110610a1d57610a1c6109dd565b5b50565b6000819050610a2e82610a0c565b919050565b6000610a3e82610a20565b9050919050565b610a4e81610a33565b82525050565b60006080820190508181036000830152610a6e8187610948565b9050610a7d60208301866109b3565b610a8a60408301856109ce565b610a976060830184610a45565b95945050505050565b600080fd5b600080fd5b7f4e487b7100000000000000000000000000000000000000000000000000000000600052604160045260246000fd5b610ae282610937565b810181811067ffffffffffffffff82111715610b0157610b00610aaa565b5b80604052505050565b6000610b1461087a565b9050610b208282610ad9565b919050565b600067ffffffffffffffff821115610b4057610b3f610aaa565b5b610b4982610937565b9050602081019050919050565b82818337600083830152505050565b6000610b78610b7384610b25565b610b0a565b905082815260208101848484011115610b9457610b93610aa5565b5b610b9f848285610b56565b509392505050565b600082601f830112610bbc57610bbb610aa0565b5b8135610bcc848260208601610b65565b91505092915050565b60008060408385031215610bec57610beb610884565b5b6000610bfa858286016108af565b925050602083013567ffffffffffffffff811115610c1b57610c1a610889565b5b610c2785828601610ba7565b9150509250929050565b6000602082019050610c466000830184610a45565b92915050565b6000602082019050610c6160008301846109ce565b92915050565b600060208284031215610c7d57610c7c610884565b5b600082013567ffffffffffffffff811115610c9b57610c9a610889565b5b610ca784828501610ba7565b91505092915050565b610cb98161088e565b82525050565b6000602082019050610cd46000830184610cb0565b92915050565b60006020820190508181036000830152610cf48184610948565b905092915050565b610d05816109a1565b8114610d1057600080fd5b50565b600081359050610d2281610cfc565b92915050565b60008060408385031215610d3f57610d3e610884565b5b6000610d4d858286016108af565b9250506020610d5e85828601610d13565b9150509250929050565b7f4e487b7100000000000000000000000000000000000000000000000000000000600052602260045260246000fd5b60006002820490506001821680610daf57607f821691505b602082108103610dc257610dc1610d68565b5b50919050565b7f496e76616c69642067656d73746f6e6520494400000000000000000000000000600082015250565b6000610dfe6013836108fc565b9150610e0982610dc8565b602082019050919050565b60006020820190508181036000830152610e2d81610df1565b9050919050565b7f416c7265616479207665726966696564206f722072656a656374656400000000600082015250565b6000610e6a601c836108fc565b9150610e7582610e34565b602082019050919050565b60006020820190508181036000830152610e9981610e5d565b9050919050565b600081905092915050565b60008190508160005260206000209050919050565b60008154610ecd81610d97565b610ed78186610ea0565b94506001821660008114610ef25760018114610f0757610f3a565b60ff1983168652811515820286019350610f3a565b610f1085610eab565b60005b83811015610f3257815481890152600182019150602081019050610f13565b838801955050505b50505092915050565b6000610f4f8284610ec0565b915081905092915050565b60008190508160005260206000209050919050565b60006020601f8301049050919050565b600082821b905092915050565b600060088302610fbc7fffffffffffffffffffffffffffffffffffffffffffffffffffffffffffffffff82610f7f565b610fc68683610f7f565b95508019841693508086168417925050509392505050565b6000819050919050565b6000611003610ffe610ff98461088e565b610fde565b61088e565b9050919050565b6000819050919050565b61101d83610fe8565b6110316110298261100a565b848454610f8c565b825550505050565b600090565b611046611039565b611051818484611014565b505050565b5b818110156110755761106a60008261103e565b600181019050611057565b5050565b601f8211156110ba5761108b81610f5a565b61109484610f6f565b810160208510156110a3578190505b6110b76110af85610f6f565b830182611056565b50505b505050565b600082821c905092915050565b60006110dd600019846008026110bf565b1980831691505092915050565b60006110f683836110cc565b9150826002028217905092915050565b61110f826108f1565b67ffffffffffffffff81111561112857611127610aaa565b5b6111328254610d97565b61113d828285611079565b600060209050601f831160018114611170576000841561115e578287015190505b61116885826110ea565b8655506111d0565b601f19841661117e86610f5a565b60005b828110156111a657848901518255600182019150602085019450602081019050611181565b868310156111c357848901516111bf601f8916826110cc565b8355505b6001600288020188555050505b505050505050565b60006060820190506111ed6000830186610cb0565b81810360208301526111ff8185610948565b905061120e60408301846109b3565b949350505050565b7f4e487b7100000000000000000000000000000000000000000000000000000000600052601160045260246000fd5b60006112508261088e565b91507fffffffffffffffffffffffffffffffffffffffffffffffffffffffffffffffff820361128257611281611216565b5b600182019050919050565b60006112988261088e565b91506112a38361088e565b92508282039050818111156112bb576112ba611216565b5b92915050565b7f4e6f74206f776e65720000000000000000000000000000000000000000000000600082015250565b60006112f76009836108fc565b9150611302826112c1565b602082019050919050565b60006020820190508181036000830152611326816112ea565b9050919050565b60006040820190506113426000830185610cb0565b61134f60208301846109b3565b939250505056fea26469706673582212209843dca9f355165cc560bcbf09c137e83117893e22ee19121806b50707680e2e64736f6c634300081c0033",
  "linkReferences": {},
  "deployedLinkReferences": {}
}